:020000040800F2
:100000000000022039170008091700080B17000824
:100010000D1700080F170008111700080000000056
:10002000000000000000000000000000131700089E
:10003000151700080000000017170008191700081E
:100040008917000889170008891700088917000810
:100050008917000889170008F91300088917000894
:1000600089170008891700088917000889170008F0
:1000700089170008891700088917000889170008E0
:1000800089170008891700088917000889170008D0
:1000900089170008891700088917000889170008C0
:1000A00089170008891700088917000889170008B0
:1000B00089170008891700088917000889170008A0
:1000C0008917000889170008891700088917000890
:1000D0008917000889170008891700088917000880
:1000E0008917000889170008891700088917000870
:1000F0008917000889170008891700088917000860
:10010000891700088917000889170008891700084F
:10011000891700088917000889170008891700083F
:10012000891700088917000889170008891700082F
:10013000891700088917000889170008891700081F
:10014000891700088917000889170008891700080F
:1001500089170008891700088917000889170008FF
:1001600089170008891700088917000889170008EF
:100170008917000889170008891700080000000087
:08018000891700088917000827
:1001880010B5054C237833B9044B13B10448AFF3C9
:1001980000800123237010BD0C0000200000000027
:1001A800E417000808B5034B1BB103490348AFF334
:1001B800008008BD0000000010000020E4170008BF
:1001C80053B94AB9002908BF00281CBF4FF0FF31B6
:1001D8004FF0FF3000F07AB9ADF1080C6DE904CEAC
:1001E80000F006F8DDF804E0DDE9022304B070470A
:1001F8002DE9F0478C460D460446089E002B51D148
:100208008A4217466DD9B2FA82FEBEF1000F0BD0B2
:10021800CEF1200C01FA0EF520FA0CFC02FA0EF7CA
:100228004CEA050C00FA0EF44FEA174A250CBCFB01
:10023800FAF81FFA87F90AFB18CC45EA0C4508FBBF
:1002480009F3AB420AD9ED1908F1FF3280F0238196
:10025800AB4240F22081A8F102083D44ED1AA4B255
:10026800B5FBFAF00AFB105544EA054400FB09F90E
:10027800A14509D9E41900F1FF3380F00A81A145AD
:1002880040F2078102383C44A4EB090440EA0840E4
:100298000021002E61D024FA0EF40023346073602C
:1002A800BDE8F0878B4207D9002E54D0002186E89C
:1002B80021000846BDE8F087B3FA83F1002940F031
:1002C8008E80AB4202D3824200F2FA80841A65EB38
:1002D80003050120AC46002E3FD086E81010BDE88B
:1002E800F08712B90127B7FBF2F7B7FA87FEBEF11C
:1002F800000F34D1EB1B3A0C1FFA87FC0121B3FB2A
:10030800F2F8250C02FB183345EA03450CFB08F309
:10031800AB4207D9ED1908F1FF3002D2AB4200F227
:10032800D1808046ED1AA3B2B5FBF2F002FB10555E
:1003380043EA05440CFB00FCA44507D9E41900F185
:10034800FF3302D2A44500F2B8801846A4EB0C048F
:1003580040EA08409DE731463046BDE8F087CEF1D7
:10036800200405FA0EF307FA0EF720FA04F83A0CFF
:1003780025FA04F448EA0308B4FBF2F14FEA1845F9
:1003880002FB11441FFA87FC45EA044501FB0CF304
:10039800AB4200FA0EF409D9ED1901F1FF3080F0F3
:1003A8008A80AB4240F2878002393D44EB1A1FFA3B
:1003B80088F5B3FBF2F002FB103345EA034500FB76
:1003C8000CF3AB4207D9ED1900F1FF386FD2AB42FD
:1003D8006DD902383D44EB1A40EA01418FE7C1F17B
:1003E800200722FA07F88B4005FA01F448EA0303CC
:1003F80020FA07FE4FEA134CFD404EEA040EB5FB07
:10040800FCF94FEA1E440CFB19551FFA83F844EA1D
:10041800054509FB08F4AC4202FA01F200FA01FAB8
:1004280008D9ED1809F1FF3043D2AC4241D9A9F1FE
:1004380002091D442D1B1FFA8EFEB5FBFCF00CFBB8
:1004480010554EEA054400FB08F8A04507D9E41802
:1004580000F1FF3529D2A04527D902381C4440EACB
:100468000940A4EB0804A0FB02894C45C6464D464A
:1004780015D312D056B1BAEB0E0364EB050404FA97
:1004880007F7CB401F43CC40376074600021BDE8BC
:10049800F0871846F8E69046E0E6C245EAD2B8EB9F
:1004A800020E69EB03050138E4E72846D7E7404622
:1004B80091E78146BEE7014678E702383C4445E7C4
:1004C800084608E7A8F102083D442BE7704700BF3B
:1004D80038B50E4A0E4B054618784FF47A73B3FBBD
:1004E800F0F31068B0FBF3F000F09EF8044658B93A
:1004F8000F2D09D8024629464FF0FF3000F052F878
:10050800044B20461D6038BD012038BD080000207E
:10051800000000200400002008B50B4B1A6842F4C4
:1005280000721A601A6842F480621A601A6842F40B
:1005380080721A60032000F023F80020FFF7C8FF3C
:1005480001F08CF8002008BD003C0240014B1868FF
:10055800704700BF2800002038B50446FFF7F6FFB3
:10056800631C1CBF054B1B78054618BFE418FFF732
:10057800EDFF401B8442FAD838BD00BF00000020C0
:10058800074AD36823F4E0631B041B0C43F0BF63E2
:10059800000243F4003300F4E0600343D360704783
:1005A80000ED00E0174B30B5DC68C4F30224C4F159
:1005B8000703251D042B28BF0423062D4FF0010532
:1005C80005FA03F303F1FF338CBF033C0024194001
:1005D800A14005FA04F4013C2240002842EA010245
:1005E8004FEA0212ADBF00F1604000F00F00064B69
:1005F80000F56140B5BFD2B2D2B21A5480F80023D8
:1006080030BD00BF00ED00E014ED00E0002808DB7D
:100618004209012300F01F0003FA00F0014B43F8E0
:100628002200704700E100E00138B0F1807F0AD273
:10063800064B074A5860F02182F823100020072251
:1006480098601A6070470120704700BF10E000E012
:1006580000ED00E02DE9F04F85B00B68DFF8AC81C4
:10066800684ADFF8AC91019300230124019D9C4066
:100678002540AC4240F0B0804C6824F0100C0CF1DE
:10068800FF36012E4FEA430E12D88768032606FA72
:100698000EF627EA0607CE6806FA0EF63E4386608F
:1006A8004768C4F3001627EA05079E403E434660A4
:1006B8000326C76806FA0EF6F64307EA060A8F68A5
:1006C80007FA0EF747EA0A07BCF1020FC76016D10E
:1006D8004FEAD30A00EB8A0A03F0070BDAF8207016
:1006E8004FEA8B0B4FF00F0C0CFA0BFC27EA0C0CA3
:1006F8000F6907FA0BF747EA0C07CAF82070076872
:100708003E4004F0030707FA0EFE4EEA06060660AE
:10071800E60061D54FF0000BCDF80CB0D8F8447066
:10072800394E47F48047C8F84470D8F8447007F445
:1007380080470397039F23F0030707F1804707F5D6
:100748009C3703F0030CD7F808A04FEA8C0C4FF045
:100758000F0E0EFA0CFEB0422AEA0E0E43D006F532
:100768008066B04241D006F58066B0423FD006F5BB
:100778008066B0423DD006F58066B0423BD0484521
:100788003BD006F50066B04239D006F58066B04227
:1007980014BF0826072606FA0CF646EA0E06BE60BF
:1007A8001668EF4314F4803F0CBF3E402E4316609A
:1007B800566814F4003F0CBF3E402E4356609668BE
:1007C80014F4801F0CBF3E402E439660D668A402E6
:1007D80054BF3E402E43D6600133102B7FF445AF03
:1007E80005B0BDE8F08F5E46D5E70126D3E70226BF
:1007F800D1E70326CFE70426CDE70526CBE7062673
:10080800C9E700BF003C0140000002400038024038
:10081800001402400AB1816170470904FBE7000037
:100828002DE9F341044608B901203FE00368DD07DC
:1008380010D4236898075AD423681A0700F19C80BB
:1008480023685B0700F1BA80A069002840F01B818B
:1008580000202BE0A44B9A6802F00C02042A07D06F
:100868009A6802F00C02082A0AD15B68590207D577
:100878009D4B1B689A03DCD56368002BD9D1D3E75D
:100888006368994DB3F5803F13D12B6843F48033E7
:100898002B60FFF75BFE944D06462B689B03C8D47C
:1008A800FFF754FE801B6428F7D9032002B0BDE887
:1008B800F081B3F5A02F04D12B6843F480232B607B
:1008C800E3E72A6822F480322A602A6822F4802228
:1008D8002A60002BDDD1FFF739FE06462B689F03FF
:1008E800A7D5FFF733FE801B6428F7D9DDE77E4BD9
:1008F8009A6812F00C0F07D09A6802F00C02082AC6
:1009080011D15B685E020ED4774B1A68950702D541
:10091800E268012A88D11A68216922F0F80242EABD
:10092800C1021A6088E7E268704BB2B101221A600E
:10093800FFF70CFE6C4D06462B68980707D52B6809
:10094800226923F0F80343EAC2032B6074E7FFF738
:10095800FDFD801B0228EFD9A7E71A60FFF7F6FD17
:10096800614D06462B6899077FF566AFFFF7EEFDE8
:10097800801B0228F6D998E762695D4B7AB101229B
:100988001A60FFF7E3FD584D06466B6F9F073FF56A
:1009980057AFFFF7DBFD801B0228F6D985E71A6001
:1009A800FFF7D4FD504D06466B6F98077FF548AFAB
:1009B800FFF7CCFD801B0228F6D976E74A4B1A6C64
:1009C80012F0805228D101921A6C42F080521A64B7
:1009D8001B6C03F080530193019B0126454D2B6846
:1009E800D9051BD5A368404D012B27D12B6F43F0A8
:1009F80001032B67FFF7AAFD3B4D074641F28838F4
:100A08002B6F9B0739D5002E3FF41EAF364A136C67
:100A180023F08053136417E70026DFE72B6843F4BD
:100A280080732B60FFF792FD07462B68DA05D9D44F
:100A3800FFF78CFDC01B0228F7D936E7052B04D138
:100A48002B6F43F004032B67D0E72A6F22F00102D3
:100A58002A672A6F22F004022A67002BCAD1FFF7FF
:100A680075FD41F2883807462B6F9807CBD5FFF7FD
:100A78006DFDC01B4045F7D917E7FFF767FDC01BA1
:100A88004045BDD911E7184DAB6803F00C03082B9E
:100A980047D0194E00230228336035D1FFF756FDA1
:100AA80007462B68990129D4226AE3691343626ACD
:100AB80043EA8213E26A43EA0263A26A0A4C5208D2
:100AC800013A43EA02436B6001233360FFF73EFDBE
:100AD800054623689A013FF5BBAEFFF737FD401B7B
:100AE8000228F6D9E1E600BF00380240000047427C
:100AF800800E47420070004060004742FFF726FD25
:100B0800C01B0228CDD9D0E6FFF720FD04462B688C
:100B18009B017FF59DAEFFF719FD001B0228F6D952
:100B2800C3E601283FF4C2AEA868E36900F4800276
:100B38009A427FF479AE226A00F03F0393427FF431
:100B480073AE626A47F6C073034093427FF46CAE9B
:100B5800A26A00F4403393427FF466AEE36A00F081
:100B68007060C01A18BF0120A0E600BF134908B57D
:100B78008B6803F00C03042B03D0082B03D0104818
:100B880008BD104808BD4A684B68496813F48003DB
:100B980014BF0C480A48C1F3881118BF002302F09B
:100BA8003F02A1FB0001FFF70BFB044B5B68C3F39B
:100BB800014301335B00B0FBF3F008BD003802408D
:100BC8000024F40000127A002DE9F0410D46044695
:100BD80010B90120BDE8F081444B1A6802F00F02F9
:100BE8008A4229D321688F072ED4C80741D43F4BA6
:100BF8001A6802F00F02954267D3226851076DD434
:100C0800130707D53A4A2169936823F4604343EAF6
:100C1800C1039360FFF7AAFF354B364A9B68C3F3BD
:100C28000313D35CD840344B1860344B1868FFF773
:100C38004FFC0020BDE8F081CAB21A701B6803F0AF
:100C48000F039942C5D1CDE7294B11F0040F1EBF00
:100C58009A6842F4E0529A600E0742BF9A6842F4DA
:100C680060429A609A68A06822F0F00202439A6093
:100C7800BBE762681E4B012A1DD11B6813F4003FB5
:100C8800A7D01B4EB36823F003031343B360FFF7E9
:100C98005DFC41F288380746B368626803F00C03CC
:100CA800B3EB820FA3D0FFF751FCC01B4045F3D92B
:100CB8000320BDE8F081911E01291B6802D813F0BA
:100CC800007FDDE713F0020FDAE7EAB21A701B685B
:100CD80003F00F039D427FF47CAF8EE70449E06880
:100CE8008B6823F4E05303438B6089E7003C0240A0
:100CF80000380240FC17000808000020040000200B
:100D0800F8B504460E4615461F4621688A6836EA35
:100D1800020301D00020F8BD6B1CF7D0FFF716FCCA
:100D2800C01B8542F1D823685A6822F0E0025A6055
:100D38006268B2F5827F0AD1A268B2F5004F02D08C
:100D4800B2F5806F03D11A6822F040021A60A26AD5
:100D5800B2F5005F07D11A6822F400521A601A68C7
:100D680042F400521A60012384F85130002384F8B9
:100D780050300320F8BD38B513464268B2F5827F7B
:100D880004461FD18268B2F5004F02D0B2F5806FD9
:100D980007D125682868B2F5806F20F040002860E8
:100DA80007D00A4680212046FFF7AAFF20B9002075
:100DB80038BD0A460121F6E7636D43F020036365F9
:100DC800032038BD0A460121EEE7000073B513463B
:100DD800134A144E15684268B5FBF6F64FF47A7557
:100DE8007543B2F5827F044601950DD10A468021EC
:100DF800FFF786FF10B9002002B070BD636D43F0A5
:100E0800200363650320F7E7019B002BF3D0019BC8
:100E1800013B019323689B681B06F5D4EBE700BFF1
:100E28000800002000366E0110B50446002836D0B0
:100E38000023836290F8513003F0FF021BB980F859
:100E4800502000F027FC2168A068A269022384F8DA
:100E580051300B6823F040030B6063680343E0687C
:100E680003432069034360690343E0690343206A3D
:100E78000343A06A034302F4007003430B60120C9F
:100E8800636A02F004021A434A60CB6923F40063E0
:100E9800CB6100200123606584F8513010BD01202A
:100EA80010BD2DE9F3411E4690F85030012B044641
:100EB8000D46904600F09B80012380F85030FFF7E4
:100EC80045FB074694F85100C0B2012840F08D80D8
:100ED800002D5DD0B8F1000F5AD0032384F85130AB
:100EE8000020A3686065A063A4F83680A087E08727
:100EF8006064206420682563B3F5004F08BF036869
:100F0800A4F8348004BF43F48043036003685B069D
:100F18005EBF036843F040030360E368B3F5006F06
:100F280063683ED113B1B8F1010F07D135F8023B20
:100F3800C3602563E38E013B9BB2E386E38E9BB2DD
:100F4800A3B93A4631462046FFF740FF002849D169
:100F5800A36833B901932368DA6801929B68019307
:100F6800019B606D003018BF012011E02268936872
:100F7800980705D5236B33F8021BD1602363D9E7A3
:100F8800FFF7E4FAC01BB042D8D3711CD6D00320B7
:100F9800012384F85130002384F8503002B0BDE8B2
:100FA800F08113B1B8F1010F08D12B780373236BCB
:100FB80001332363E38E013B9BB2E386E38E9BB24E
:100FC800002BBED023689A68920703D5226B12784B
:100FD8001A73ECE7FFF7BAFAC01B8642EED8731C07
:100FE800ECD0D4E720236365B2E70220D0E70220E3
:100FF800D4E72DE9F7431E4690F850300A9F012B9D
:1010080004460D46914600F0E280012380F85030F6
:10101800FFF79CFA94F851306168DBB2012B8046E7
:101028000AD0B1F5827F40F0D080A068002840F057
:10103800CC80042B40F0C980002D00F0C480B9F1A9
:10104800000F00F0C080002E00F0BD8094F85130F1
:10105800C4F83890042B1CBF052384F851300023B2
:101068006365236463642368E687E6861A68A6874F
:10107800500658BF1A68256358BF42F04002A6863A
:1010880058BF1A60E268B2F5006F58D109B1012E55
:1010980007D135F8022BDA60E38E2563013B9BB25A
:1010A800E3860125E38E9BB2ABB9E38F9BB293B97C
:1010B800424639462046FFF789FE002840F08180E5
:1010C800A368002B32D123680190DA6801929B68EB
:1010D8000193019B2AE02268936899070DD5E38E56
:1010E8009BB253B14DB1236B33F8021BD16023631C
:1010F800E38E013B9BB2E38600259368DB070CD5A2
:10110800E38F9BB24BB1A36BD26823F8022BA36386
:10111800E38F013B9BB2E3870125FFF717FAA0EBAA
:1011280008008742BED87E1CBCD00320012384F867
:101138005130002384F8503003B0BDE8F08309B182
:10114800012E08D12A781A73236B01332363E38EA7
:10115800013B9BB2E3860125E38E9BB21BB9E38F6B
:101168009BB2002BA4D02268936898070ED5E38E13
:101178009BB25BB155B1236B1B781373236B01339F
:101188002363E38E013B9BB2E386002522689368C4
:10119800D9070DD5E38F9BB253B1A36BD2681A70F0
:1011A800A36B0133A363E38F013B9BB2E387012564
:1011B800FFF7CCF9A0EB08008742CDD87B1CCBD039
:1011C800B3E7202363650120B0E70220AEE70220E1
:1011D800B2E72DE9F3411D464368B3F5827F044623
:1011E800884617460CD1836853B9042380F85130D8
:1011F800134600950A46FFF7FCFE02B0BDE8F081F1
:1012080094F85030012B79D0012384F85030FFF73F
:101218009DF9064694F85100C0B201286CD1B8F186
:10122800000F57D0002F55D0042384F851300023E5
:1012380063652363E787A386E38623646364A368FF
:10124800A787B3F5004F2368C4F8388002BF1A682F
:1012580022F480421A601A6857065EBF1A6842F084
:1012680040021A60E368F3B1E38F9BB2FBB12368D5
:101278009A68D20735D5DA68A36B23F8022BA363E3
:10128800E38F013B9BB2E387EEE723689A68D007B8
:1012980018D5A26B1B7B1370A36B0133A363E38F79
:1012A800013B9BB2E387E38F9BB2002BEDD1324623
:1012B80029462046FFF75FFDD8B9606D003018BF9A
:1012C800012007E0FFF742F9801B8542EBD8691C33
:1012D800E9D00320012384F85130002384F85030EA
:1012E8008BE7FFF733F9801B8542BDD86B1CBBD059
:1012F800EFE720236365E0E70220EBE702207CE7C5
:1013080037B5104C104D8DF807008DF806102046A3
:1013180000220821FFF77EFA0DF107010A230122B6
:101328002846FFF7BEFD0A230DF1060101222846D3
:10133800FFF7B7FD012208212046FFF76BFA03B03B
:1013480030BD00BF00100240300000207FB504AC63
:10135800114D124E60F07F0004F8090D0022284656
:1013680008218DF80F20FFF755FA21460A2301229C
:101378003046FFF796FD0A230DF10F010122304692
:10138800FFF727FF284601220821FFF743FA9DF8B7
:101398000F0004B070BD00BF0010024030000020F4
:1013A80008B580212520FFF7ABFF01212320FFF797
:1013B800A7FF6420FFF7D0F80F20FFF7C7FF3F28EB
:1013C80015D148212320FFF79BFF47212020FFF755
:1013D80097FF48212420FFF793FF64212520FFF77A
:1013E8008FFF41212E20BDE80840FFF789BF08BDC7
:1013F800254B70B501265E612F20FFF7A7FF234B11
:10140800234D18702920FFF7A1FF28702B20FFF724
:101418009DFF204C20702D20FFF798FF1E4B187061
:101428002F20FFF793FF1D4B187095F900301C48CB
:101438000A33B4BF324600224FF48051FFF7EAF96D
:1014480095F9003016480A2BCCBF012200224FF430
:101458008041FFF7DFF994F9003011480A33B4BF2F
:10146800012200224FF40041FFF7D4F994F900302B
:101478000B480A2BCCBF012200224FF40051BDE8D3
:101488007040FFF7C7B900BF003C0140880000204A
:101498002C0000202F0000202E0000202D0000200E
:1014A800000C024030B595B03022002108A800F0A9
:1014B8008DF90021142203A800F088F900241C4BA0
:1014C80001941A6C42F080521A641B6C03F080532A
:1014D8000193019B174B02941A6842F480421A60E8
:1014E8001B6803F480430293029B012308934FF483
:1014F800803309934FF480030225A8220F9308A88C
:1015080004231093119213930E951295FFF788F9FF
:101518000F2303934FF4A053069305214FF48053F0
:1015280003A8049505940793FFF74EFB15B030BD4B
:10153800003802400070004000B58BB0FEF7ECFFA9
:10154800FFF7B0FF142200210DEB020000F03EF976
:1015580000243C4B01941A6B3B483C4D42F010026E
:101568001A631A6B02F010020192019A02941A6B24
:1015780042F080021A631A6B02F080020292029A09
:1015880003941A6B42F001021A631A6B02F001020B
:101598000392039A04941A6B42F008021A631B6BB5
:1015A80003F00803049322460821049BFFF732F94D
:1015B80022464FF470412648FFF72CF901260823EC
:1015C80005A921480593069607940894FFF742F861
:1015D8004FF4704305A91E4805930696079408948E
:1015E800FFF738F81B4B1848069305A9059607948A
:1015F800FFF730F8224621460620FEF7D3FF0620E3
:10160800FFF704F8144AAC604FF4827385E80C00C5
:1016180002232B614FF40073AB613823EB6128463A
:101628000A23EB62EC606E612C626C62AC62FFF7BD
:10163800FBFB2A68136843F040031360FFF7B0FE12
:10164800FEE700BF003802400010024030000020D2
:10165800000C0240000011100030014082B00C4B19
:10166800002100915A6C42F480425A645A6C02F488
:1016780080420092009A01911A6C42F080521A64DA
:101688001B6C03F080530193019B02B0704700BFAD
:101698000038024010B5044688B01422002103A87F
:1016A80000F094F82268144B9A4222D103F584334F
:1016B800002101915A6C114842F480525A645A6CC4
:1016C80002F480520192019A02911A6B42F00102CF
:1016D8001A631B6B03F001030293029BE02303933D
:1016E800022304930323069303A905230793FEF714
:1016F800B1FF08B010BD00BF00300140000002403B
:101708007047FEE7FEE7FEE7FEE770477047704761
:1017180070470000054BD3F8882042F47002C3F8E4
:1017280088204FF000629A60704700BF00ED00E02B
:10173800DFF834D0002103E00C4B5B5843500431F0
:101748000B480C4B42189A42F6D30B4A02E000238E
:1017580042F8043B094B9A42F9D3FFF7DBFF00F04C
:1017680011F8FFF7E9FE7047000002201C18000876
:10177800000000200C0000200C0000208C0000203D
:10178800FEE7000070B50D4E0D4CA41BA4100025FB
:10179800A54209D10B4E0C4C00F020F8A41BA41054
:1017A8000025A54205D170BD56F82530984701356A
:1017B800EEE756F8253098470135F2E71418000887
:1017C80014180008141800081818000802440346E2
:1017D800934200D1704703F8011BF9E7F8B500BF41
:1017E800F8BC08BC9E467047F8B500BFF8BC08BCFA
:0417F8009E46704752
:1017FC0000000000000000000102030406070809B5
:08180C00ECE9FF7F0100000080
:04181400AD0100081A
:04181800890100083A
:0C181C0001000000100000000024F40097
:04000005080017399F
:00000001FF
